:020000040000FA
:100000000C9406080C94B71A0C94901A0C942E08B1
:100010000C942E080C942E080C942E080C942E0888
:100020000C942E080C942E080C942E080C942E0878
:100030000C942E080C942E080C942E080C942E0868
:100040000C94461A0C942E080C94141A0C94EE1965
:100050000C942E080C942E080C942E080C942E0848
:100060000C94DE1A0C942E0800000000003E5B4F3A
:100070005B3E3E6B4F6B3E1C3E7C3E1C183C7E3C08
:10008000181C577D571C1C5E7F5E1C00183C180016
:10009000FFE7C3E7FF0018241800FFE7DBE7FF30A6
:1000A000483A060E2629792926407F050507407F14
:1000B00005253F5A3CE73C5A7F3E1C1C08081C1C87
:1000C0003E7F14227F22145F5F005F5F06097F017D
:1000D0007F006689956A606060606094A2FFA29468
:1000E00008047E040810207E201008082A1C080836
:1000F0001C2A08081E101010100C1E0C1E0C303884
:100100003E3830060E3E0E06000000000000005F84
:1001100000000007000700147F147F14242A7F2AA0
:100120001223130864623649562050000807030062
:10013000001C2241000041221C002A1C7F1C2A08AE
:10014000083E080800807030000808080808000011
:1001500060600020100804023E5149453E00427F85
:10016000400072494949462141494D331814127FD4
:100170001027454545393C4A494931412111090774
:100180003649494936464949291E000014000000F5
:1001900040340000000814224114141414140041C7
:1001A00022140802015909063E415D594E7C121184
:1001B000127C7F494949363E414141227F414141BC
:1001C0003E7F494949417F090909013E4141517337
:1001D0007F0808087F00417F41002040413F017FA8
:1001E000081422417F404040407F021C027F7F0470
:1001F00008107F3E4141413E7F090909063E4151B9
:10020000215E7F09192946264949493203017F01A8
:10021000033F4040403F1F2040201F3F4038403FA9
:10022000631408146303047804036159494D4300BF
:100230007F4141410204081020004141417F0402F6
:10024000010204404040404000030708002054548D
:1002500078407F284444383844444428384444286B
:100260007F385454541800087E090218A4A49C78BE
:100270007F0804047800447D40002040403D007F1A
:100280001028440000417F40007C047804787C08FA
:100290000404783844444438FC18242418182424CE
:1002A00018FC7C08040408485454542404043F44B3
:1002B000243C4040207C1C2040201C3C4030403CE2
:1002C00044281028444C9090907C4464544C440042
:1002D00008364100000077000000413608000201A6
:1002E0000204023C2623263C1EA1A161123A404092
:1002F000207A38545455592155557941225454780F
:1003000042215554784020545579400C1E527212A7
:100310003955555559395454545939555454580030
:1003200000457C410002457D420001457C407D1234
:1003300011127DF0282528F07C5455450020545496
:100340007C547C0A097F4932494949323A44444441
:100350003A324A4848303A4141217A3A424020787C
:10036000009DA0A07D3D4242423D3D4040403D3C7D
:1003700024FF2424487E4943662B2FFC2F2BFF09A2
:1003800029F620C0887E0903205454794100004496
:100390007D413048484A32384040227A007A0A0A81
:1003A000727D0D19317D2629292F282629292926F4
:1003B00030484D4020380808080808080808382F39
:1003C00010C8ACBA2F102834FA00007B00000814C3
:1003D0002A142222142A14085500550055AA55AA99
:1003E00055AAFF55FF55FF000000FF00101010FF39
:1003F00000141414FF001010FF00FF1010F010F094
:10040000141414FC001414F700FF0000FF00FF1484
:1004100014F404FC141417101F10101F101F1414D0
:10042000141F00101010F0000000001F101010101A
:100430001F10101010F010000000FF10101010100E
:1004400010101010FF10000000FF140000FF00FF4C
:1004500000001F10170000FC04F4141417101714E8
:1004600014F404F40000FF00F7141414141414140A
:10047000F700F7141414171410101F101F1414147D
:10048000F4141010F010F000001F101F0000001FE7
:1004900014000000FC140000F010F01010FF10FF1A
:1004A000141414FF141010101F00000000F010FFAF
:1004B000FFFFFFFFF0F0F0F0F0FFFFFF0000000093
:1004C00000FFFF0F0F0F0F0F3844443844FC4A4A17
:1004D0004A347E02020606027E027E0263554941CC
:1004E000633844443C04407E201E2006027E020203
:1004F00099A5E7A5991C2A492A1C4C7201724C3017
:100500004A4D4D303048784830BC625A463D3E49ED
:100510004949007E0101017E2A2A2A2A2A44445F91
:10052000444440514A444040444A51400000FF0185
:1005300003E080FF000008086B6B08361236243693
:10054000060F090F060000181800000010100030F8
:1005500040FF0101001F01011E00191D1712003C80
:100560003C3C3C00000000002200FF210000010391
:10057000070F1F3F7F0080C0E0F0F8FCFE00000086
:1005800000230026002900000000080002010000EE
:100590000304070000000000000000000000002429
:1005A0000027002A00DB40A4A62EAF2000A1C8D35C
:1005B00000408DAED580A8010204081020408001C3
:1005C0000204081020010204081020000000002589
:1005D0000028002B000404040404040404020202A2
:1005E0000202020303030303030000600000000093
:1005F00000000000000000000000E000000000001B
:10060000000000000000000001E000000000000009
:100610000000000000000001F000000000000000E9
:1006200000000000000003F00000000000000000D7
:10063000000000000007F0000000000000000000C3
:100640000000000007F800000000000000000000AB
:100650000000000FF800000003C0007E000001E071
:10066000007F0FF800000003C000FE000001E00062
:10067000FFEFF800000003C000FE000001E000FFF3
:10068000FFF800000003C000F00000000F007FFE34
:100690007FC0000003C000F00000000F003FFE7F9D
:1006A000F83FF1FBCFFCFEF3BC3DEFE01FFE7FFF08
:1006B0007FFBFFDFFEFEFFBC3DEFE01FC6FFFF7FBD
:1006C000FBFFDFFEFEFFBC3DEFE00FE3C7FE787BE4
:1006D000C3DE1EF0FFBC3DEF0007FF87FC787BC345
:1006E000DE1EF0F83C3DEF0001FFFFF0007BC3C0D1
:1006F0001EF0F03C3DEF0001F37FE03FFBC3CFFE77
:10070000F0F03C3DEF0003E33F807FFBC3DFFEF0F2
:10071000F03C3DEF0007E73C00787BC3DE1EF0F0C5
:100720003C3DEF0007FFBE00787BC3DE1EF0F03CCF
:100730003DEF0007FFFE00787BC3DE1EF0F03C3D7E
:10074000EF000FFFFE007FFBFFDFFEF0F03FFDEF4D
:10075000E00FFFFF007FFBFFDFFEF0F03FFDEFE06B
:100760000FF9FF003E79F9CF9EF0F01F3DE7E01F43
:10077000F1FF0000000000000000000000001F80EA
:10078000FF007FFFFFFFFFFFFFFFFFFFE01C007F79
:10079000007FFFFFFFFEB46D888D18E000001F0092
:1007A0007FFFFFFFFE95AD7DB577E000000F007F76
:1007B000FFFFFFFEA5AD9D8D19E0000006007FFF45
:1007C000FFFFFEB5ADEDB57EE0000000000001804A
:1007D0000000000000000000000380000000000096
:1007E0000000000007C0000000000000000000073B
:1007F000C00000000000000000000FC0000000006A
:1008000000000000001FE0000000000000000000E9
:100810001FE00000000000000000003FE0000000BA
:100820000000000000003FF0000000000000000099
:10083000007FF0000000000000001FF87FF00000C3
:1008400000000000003FFE7FF000000000000000FC
:100850003FFF7FF0000000000000001FFFFBE000F2
:100860000000000000000FFFF9FFC00000000000C2
:10087000000FFFF9FFF800000000000007FFF1FF84
:10088000FF00000000000003FC73FFFF8000000079
:10089000000001FE3FFFFF80000000000000FF1E7F
:1008A0000FFF000000000000007FFE1FFC000000A2
:1008B000000000003FFFFFF8000000000000000FF4
:1008C000DFFFE0000000000000001F19FFC0000073
:1008D00000000000003F3CFF00000000000000009E
:1008E0007E7CF800000000000000007FFE7C00001D
:1008F000000000000000FFFFFC00000000000000FE
:1009000000FFFFFE0000000000000000FFFFFE00EF
:1009100000000000000001FFEFFE000000000000EA
:100920000001FFCFFE0000000000000003FF07FEF3
:100930000000000000000003FC07FE0000000000B3
:10094000000003F003FE0000000000000001800032
:10095000FE000000000000000000007E000000001B
:100960000000000000003E00000000000000000049
:10097000000C000000000000078000FC000003C025
:10098000000000078001FC000003C0000000078099
:1009900001FC000003C0000000078001E00000002F
:1009A0001E000000078001E00000001E007FE3F74A
:1009B0009FF9FDE7787BDFC0FFF7FFBFFDFDFF7804
:1009C0007BDFC0FFF7FFBFFDFDFF787BDFC0F0F7E7
:1009D00087BC3DE1FF787BDE00F0F787BC3DE1F0AE
:1009E000787BDE0000F787803DE1E0787BDE007FEA
:1009F000F7879FFDE1E0787BDE00FFF787BFFDE131
:100A0000E0787BDE00F0F787BC3DE1E0787BDE003C
:100A1000F0F787BC3DE1E0787BDE00F0F787BC3D76
:100A2000E1E0787BDE00FFF7FFBFFDE1E07FFBDF69
:100A3000C0FFF7FFBFFDE1E07FFBDFC07CF3F39F6A
:100A40003DE1E03E7BCFC000000000000000000060
:100A50000000FFFFFFFFFFFFFFFFFFFFC0FFFFFFE3
:100A6000FFFD68DB111A31C0FFFFFFFFFD2B5AFBB2
:100A70006AEFC0FFFFFFFFFD4B5B3B1A33C0FFFF78
:100A8000FFFFFD6B5BDB6AFDC0232323204E4F205D
:100A900073637265656E20666F756E642120232313
:100AA0002300000000000000000000000000000023
:100AB0000000000000000000000000000000000036
:100AC0000000000000000000000000000000000026
:100AD0000000000000000000000000007C0000009A
:100AE00000000000000000000000000F8E00000069
:100AF00000000000000000000000000F0F000000D8
:100B000000000000000000FFFFFFFFF01380000066
:100B100000000000000001FC0000000061800000F7
:100B2000000000000000019C000000006180000047
:100B30000000000000000103800000007180000040
:100B4000000000000000010780000000318000006C
:100B5000000000000000010F800000003180000054
:100B6000000000000000011C0000000031800000B7
:100B700000000000000001180000000011800000CB
:100B80000000000000000190000001F00F80000054
:100B900000000000000001E07F80060E0C00000055
:100BA00000000000000000E07FC00E0E0C000000FE
:100BB000000000000000006081E070018E00000075
:100BC000000000000000007000E0F001860000005E
:100BD00000000000000000701C1FE03182000000D7
:100BE00000000000000000621C1C63FC42000000CA
:100BF00000000000000000631C1863FC42000000BD
:100C000000000000000000E31B9063FC6200000095
:100C100000000000000000E31F9007E062000000F9
:100C200000000000000000E31F9007C06200000009
:100C300000000000000000E30F0000006200000060
:100C400000000000000000C3080000008200000057
:100C5000000000000000008310000001820000007E
:100C6000000000000000008303FFFC018200000080
:100C700000000000000000C104F0F4018600000044
:100C800000000000000000E0846062018E000000AF
:100C90000000000000000070E010E1820C00000085
:100CA0000000000000000038E011C1820C000000CC
:100CB0000000000000000018700E01F01C00000091
:100CC000000000000000000C000601F3F800000026
:100CD0000000000000000004000301F3F000000029
:100CE0000000000000000006047FE3FC600000003C
:100CF0000000000000000007FE3FC7F86000000091
:100D00000000000000000003FF000C006000000075
:100D10000000000000000003C3800000600000002D
:100D2000000000000000000383800000600000005D
:100D30000000000000000000807FF0007000000054
:100D400000000000000000008000000030000000F3
:100D500000000000000000008000000030000000E3
:100D600000000000000000008000001030000000C3
:100D70000000000000000000800000303000000093
:100D80000000000000000000800001F030000000C2
:100D9000000000000000000080000180380000001A
:100DA0000000292023232300232323204F4C4544E4
:100DB0003A202041646166727569745F535344310F
:100DC0003330362073637265656E206372656174BB
:100DD0006564202830780053534431333036206125
:100DE0006C6C6F636174696F6E206661696C6564B9
:100DF00000292023232300232323204F4C45442074
:100E000073637265656E20666F756E64212028308D
:100E10007800232323204C45443A20446973706CA6
:100E2000617920696E697469616C697365642028F1
:100E30002D2D2D292023232300232323204C45441B
:100E40003A20446973706C617920627269676874D2
:100E50006E6573732073657420746F2030202323B4
:100E60002300232323204C45443A20544D3136356A
:100E70003120646973706C61792063726561746597
:100E8000642023232300232323204C454420736321
:100E90007265656E20666F756E64212023232300C2
:100EA0002323232053637265656E20547970653A5D
:100EB000204C454420232323002323232053637203
:100EC00065656E20547970653A204F4C4544202367
:100ED0002323002323232053637265656E205479F6
:100EE00070653A204E4F4E45202121212023232397
:100EF00000232323204A554D5045523A204F4C455C
:100F000044204472697665723A2053483131303654
:100F10002023232300232323204A554D5045523AB2
:100F2000204F4C4544204472697665723A205353F1
:100F30004431333036202323230020232323007819
:100F400000232323204A554D5045523A204F4C450B
:100F500044205265736F6C7574696F6E3A2000207F
:100F6000232323007800232323204A554D50455244
:100F70003A204F4C4544205265736F6C7574696F0D
:100F80006E3A20002023232300232323204A505F8E
:100F90004F4C45445F44525F53746174653A20007E
:100FA0002023232300232323204A505F4F4C454412
:100FB0005F5245535F53746174653A2000232323C5
:100FC000204A505F53504152455F53746174653AF3
:100FD0002000232323002023232300232323200076
:100FE00020232323002323232000232323002D2D2C
:100FF0002D2D2D2D2D2D2D2D2D2D2D2D2D2D2D2D21
:101000002D2D2D2D2D2D2D2D2D00FD1B11241FBE21
:10101000CFEFD8E0DEBFCDBF11E0A0E0B1E0EEE061
:10102000FFE402C005900D92AA3CB107D9F723E076
:10103000AAECB1E001C01D92AB35B207E1F718E0B0
:10104000C6E0D8E004C02197FE010E944E26C530BC
:10105000D107C9F70E943C1C0C9485270C94000012
:1010600008952091A3023091A4022F5F3F4F309347
:10107000A4022093A30280938E02089508950895F8
:10108000AF92BF92CF92DF92EF92FF920F931F9396
:10109000CF93DF936C017B018B01040F151FEB01D4
:1010A0005E01AE18BF08C017D10759F06991D6018B
:1010B000ED91FC910190F081E02DC6010995892BFD
:1010C00079F7C501DF91CF911F910F91FF90EF90BC
:1010D000DF90CF90BF90AF900895FC01538D448D69
:1010E000252F30E0842F90E0821B930B541710F0D3
:1010F000CF96089501970895FC01918D828D9817E0
:1011000061F0A28DAE0FBF2FB11D5D968C91928DB7
:101110009F5F9F73928F90E008958FEF9FEF0895E8
:10112000FC01918D828D981731F0828DE80FF11DB1
:10113000858D90E008958FEF9FEF0895FC01918DCC
:10114000228D892F90E0805C9F4F821B91098F73C5
:10115000992708958BEA92E00E949E0821E0892B4E
:1011600009F420E0822F089580E090E0892B29F097
:101170000E94AA0881110C9400000895FC01A48D1E
:10118000A80FB92FB11DA35ABF4F2C91848D90E0A9
:1011900001968F739927848FA689B7892C93A0898C
:1011A000B1898C91837080648C93938D848D981316
:1011B00006C00288F389E02D80818F7D80830895A9
:1011C000EF92FF920F931F93CF93DF93EC0181E097
:1011D000888F9B8D8C8D98131AC0E889F98980813E
:1011E00085FF15C09FB7F894EE89FF896083E88971
:1011F000F98980818370806480839FBF81E090E063
:10120000DF91CF911F910F91FF90EF900895F62EEF
:101210000B8D10E00F5F1F4F0F731127E02E8C8D89
:101220008E110CC00FB607FCFACFE889F9898081CE
:1012300085FFF5CFCE010E94BE08F1CFEB8DEC0FFC
:10124000FD2FF11DE35AFF4FF0829FB7F8940B8FEB
:10125000EA89FB8980818062CFCF0F931F93CF9360
:10126000DF938C01D0E0C0E0F801EC0FFD1F64912A
:10127000662341F08BEA92E00E94E008892B11F08E
:101280002196F2CFCE01DF91CF911F910F9108955A
:10129000CF93DF93EC01888D8823B9F0AA89BB89AD
:1012A000E889F9898C9185FD03C0808186FD0DC098
:1012B0000FB607FCF7CF8C9185FFF2CF808185FFB9
:1012C000EDCFCE010E94BE08E9CFDF91CF91089506
:1012D000833081F028F4813099F08230A9F00895AC
:1012E0008730A9F08830C9F08430B1F48091800053
:1012F0008F7D03C0809180008F7780938000089558
:1013000084B58F7784BD089584B58F7DFBCF8091A0
:10131000B0008F778093B00008958091B0008F7DEA
:10132000F9CFCF93DF93282F30E0F901E957FA4F37
:101330008491F901E954FA4FD491F901EB52FA4F33
:10134000C491CC23A1F081110E946809EC2FF0E038
:10135000EE0FFF1FE358FA4FA591B491EC91ED23E6
:1013600081E090E009F480E0DF91CF91089580E082
:1013700090E0FACF84E00E9491099093A0028093BC
:101380009F02009761F00197A1F0809191029091E6
:101390009202019690939202809391020895809117
:1013A00095029091960201969093960280939502F1
:1013B000ECCF8091950290919602181619062CF7A1
:1013C0000197F2CF1F93CF93DF93282F30E0F901DD
:1013D000E957FA4F8491F901E954FA4FD491F90190
:1013E000EB52FA4FC491CC23A9F0162F81110E9421
:1013F0006809EC2FF0E0EE0FFF1FE553FA4FA591BF
:10140000B4918FB7F894EC91111108C0D095DE23F8
:10141000DC938FBFDF91CF911F910895DE2BF8CF22
:10142000CF93DF9390E0FC01E954FA4F24918B5263
:101430009A4FFC0184918823C9F090E0880F991F8E
:10144000FC01E556FA4FA591B491FC01E553FA4F22
:10145000C591D49161110DC09FB7F8948C912095DE
:1014600082238C938881282328839FBFDF91CF918B
:101470000895623051F49FB7F8943C91822F809583
:1014800083238C93E8812E2BEFCF8FB7F894EC91C8
:101490002E2B2C938FBFEACF3FB7F89480917F0219
:1014A00090918002A0918102B091820226B5A89B02
:1014B00005C02F3F19F00196A11DB11D3FBFBA2FE6
:1014C000A92F982F8827BC01CD01620F711D811DA6
:1014D000911D42E0660F771F881F991F4A95D1F72B
:1014E00008958F929F92AF92BF92CF92DF92EF9228
:1014F000FF924B015C010E944C0A6B017C010E942F
:101500004C0A6C197D098E099F09683E734081055C
:101510009105A8F321E0821A9108A108B10888EE8C
:10152000C80E83E0D81EE11CF11C81149104A104B3
:10153000B10429F7FF90EF90DF90CF90BF90AF906C
:101540009F908F90089508950F931F93CF93DF93EB
:101550008C0160E0FC0183810E94E20960E0F801F7
:1015600084810E94E209CBE0D0E0CE010197F1F73F
:1015700061E0F80183810E94E2092197F1F761E0BF
:10158000F8018481DF91CF911F910F910C94E209B2
:101590000F931F93CF93DF938C0161E0FC01838154
:1015A0000E94E20961E0F80184810E94E209CBE037
:1015B000D0E0CE010197F1F760E0F80184810E944C
:1015C000E2092197F1F760E0F8018381DF91CF9183
:1015D0001F910F910C94E209CF92DF92EF92FF924C
:1015E0000F931F93CF93DF93EC01062F18E09BE03E
:1015F000C92ED12C60E08B810E94E209E02E002EE2
:10160000000CFF0861E000FF60E08C810E94E209AD
:10161000C6010197F1F7F594E7940E2D61E08B81F7
:101620000E94E209C6010197F1F7115019F760E035
:101630008B810E94E20961E08C810E94E20983E0D3
:1016400090E00197F1F761E08B810E94E20960E090
:101650008C810E94100A8C810E949109892B69F06B
:101660001F5F183CA1F761E08C810E94100A60E0C6
:101670008C810E94E20910E0EACF61E08C81DF9169
:10168000CF911F910F91FF90EF90DF90CF900C942E
:10169000100A0F931F93CF93DF93EC01062F142FA3
:1016A0000E94C80A64E4CE010E94EC0ACE010E94A6
:1016B000A40ACE010E94C80A60EC600FCE010E940D
:1016C000EC0AE12FF0E0E25FFE4F6081CE010E9464
:1016D000EC0ACE010E94A40ACE010E94C80A6A81C7
:1016E000CE010E94EC0ACE01DF91CF911F910F91A4
:1016F0000C94A40A20913002260F3327331F213285
:101700003105ECF420915402FC0190E080E024309B
:1017100069F082E00895A09130022191AC01405F10
:101720005D4FA40FB52FB11D2C930196861798F32A
:1017300080913002680F6093300280E0089581E06C
:1017400008951092540281E080935602109255023F
:1017500061E082E10E94E20961E083E10E94E20926
:10176000E9EBF0E080818E7F808380818D7F8083B4
:1017700088E48093B80085E48093BC000895CF93FB
:10178000DF9391E090930F028823B9F0C091B800E5
:10179000D091BA008091BC008A7B8093BC0060E04D
:1017A00082E10E94E20960E083E10E94E2090E9476
:1017B000A10BD093BA00C093B800DF91CF910895E8
:1017C000E0918D0280918C02E81730F4F0E0E65150
:1017D000FE4F808190E008958FEF9FEF08959091E4
:1017E0008D0280918C022FEF3FEF981748F4E92F7C
:1017F000F0E0E651FE4F208130E09F5F90938D0234
:10180000C901089580918C0290918D02891B990BDA
:101810000895CF92DF92EF92FF920F931F93CF9391
:10182000DF937C01CB018A0120918402222389F07D
:10183000EB016B01C40ED51ECC15DD0569F0699175
:10184000D701ED91FC910190F081E02DC701099540
:10185000F3CF642F0E947A0BC801DF91CF911F91C3
:101860000F91FF90EF90DF90CF900895CF93DF938B
:101870001F92CDB7DEB76983209184022223F9F04D
:1018800020918A02203258F021E030E0FC013383BD
:10189000228390E080E00F90DF91CF9108958091B6
:1018A0008B02E82FF0E0E653FE4F998190838F5F23
:1018B00080938B0280938A0281E090E0ECCF61E01C
:1018C000CE0101960E947A0BF7CFCF92DF92EF9272
:1018D000FF920F931F93CF93DF93D0918A0281E001
:1018E000D13208F09CC0C09183020E944C0A6B0167
:1018F0007C018091540281116CC082E0809354027B
:1019000081E0809356028FEF809353021092780209
:10191000D0937702AAECB1E0E7E5F2E080E0D813DB
:101920008DC01092790280917902CC0FC82BC093A0
:10193000790280915502813009F084C010925502DD
:101940000E944C0A6B017C01809179028093BB005C
:1019500080910B0290910C02A0910D02B0910E02A9
:10196000892B8A2B8B2BA1F00E944C0A00910B0231
:1019700010910C0220910D0230910E026C197D091C
:101980008E099F09061717072807390708F442C070
:101990008091BC0083FDD8CF85EC8093BC000E9471
:1019A0004C0A6B017C0180915402823009F44CC0D6
:1019B000809153028F3F09F469C0809153028032B5
:1019C00009F466C080915302803309F463C084E057
:1019D00026C080910B0290910C02A0910D02B09153
:1019E0000E02892B8A2B8B2B09F483CF0E944C0A81
:1019F00000910B0210910C0220910D0230910E0209
:101A00006C197D098E099F090617170728073907E2
:101A100008F06FCF80910A020E94BF0B85E0109200
:101A20008B0210928A0210928402DF91CF911F9153
:101A30000F91FF90EF90DF90CF9008959D9191933B
:101A40008F5F6DCF85EEA9CF80910B0290910C0234
:101A5000A0910D02B0910E02892B8A2B8B2B09F4D9
:101A6000A2CF0E944C0A00910B0210910C0220910F
:101A70000D0230910E026C197D098E099F0906171F
:101A800017072807390708F08ECFC4CF80E0C7CFEB
:101A900082E0C5CF83E0C3CFEF92FF920F931F93F5
:101AA000CF93DF93EC01EC80FD806E157F050CF089
:101AB00070C057FF04C0240F351F50E040E08E81F6
:101AC0009F81FA01E20FF31F8E179F071CF49C0100
:101AD000241B350B121613060CF05BC0922F842FBB
:101AE0008695869586958E9DD0018F9DB00D11248B
:101AF0006A0F7B1FAF8DB8A1A60FB71F477049F1C2
:101B000088E0841B482F682F70E0FB01EB58FA4FE8
:101B1000E491281708F063C0621B71092FEF30E0D1
:101B200002C0359527956A95E2F7E2230130110549
:101B300039F0B0F10230110561F58C91E82702C04F
:101B40008C91E82BEC93941720F12C813D81A20F0E
:101B5000B31FE92FE41BE83078F00230110521F5BE
:101B60008E2F9C9190959C932C813D81A20FB31F49
:101B700088508830B0F7E770EE2359F0F0E0E35971
:101B8000FA4FE49101301105F9F010F1023011051E
:101B900019F1DF91CF911F910F91FF90EF90089570
:101BA000E0958C91E823CECF81E00115110509F471
:101BB00080E081959E2F8C932C813D81A20FB31FD5
:101BC00098509830C0F7D7CF8C91E82BEC93E1CFA9
:101BD000E0958C91E823FACF8C91E827F7CF01307C
:101BE000110509F4ADCFE0F20230110509F4A5CFDB
:101BF000AE0DBF1DAECF0F931F93CF93DF9377FF33
:101C000004C0260F371F70E060E0DC011496CD9110
:101C1000DC91FB01E20FF31FCE17DF071CF49E01DE
:101C2000261B370B121613064CF5FA0157FD379693
:101C3000A3E0F595E795AA95E1F7EC9FD001ED9F1C
:101C4000B00DFC9FB00D11246A0F7B1FDC015F9665
:101C5000ED91FC91E60FF71F4770552781E090E06A
:101C600001C0880F4A95EAF7482F0130110559F055
:101C7000A8F02E0F3F1F02301105E1F0DF91CF9148
:101C80001F910F9108952E0F3F1FE217F307B1F335
:101C90008191DF011197842B8C93F7CF80952E0FC4
:101CA0003F1FE217F30751F39191DF01119798233A
:101CB0009C93F7CFE217F30709F38191DF011197A6
:101CC00084278C93F7CF0F931F93FA01DC0156966C
:101CD0004C9156974230E9F04330A1F1413061F523
:101CE00014964D915C91DA01AE1BBF0BFD01E21B16
:101CF000F30B77FD0BC0DC0116964D915C916417D8
:101D0000750724F4AB01BF010E94FB0D1F910F91D9
:101D1000089514964D915C91DA01A61BB70BBD0195
:101D200061507109DC0116964D915C91DA01AE1B90
:101D3000BF0BFD01E21BF30B77FDE8CFAF010E9463
:101D40004C0DE4CF16964D915C91DA01A61BB70BB2
:101D5000BD0161507109CDCF0F931F93FA01DC01D2
:101D600056964C9156974230A9F0433091F141304C
:101D700019F514964D915C91DA01AE1BBF0BFD0174
:101D80003197F7FD04C0AB01BF010E944C0D1F91BC
:101D90000F91089514964D915C91DA01A61BB70B33
:101DA000BD01DC0116964D915C91DA01AE1BBF0BB3
:101DB000FD013197621B730BF7FDE9CFDC0116962D
:101DC0004D915C91E417F50714F7AF010E94FB0DEC
:101DD000DECF16964D915C91DA01A61BB70BBD01C3
:101DE000621B730BCECFFC0177FD64C080859185AB
:101DF000681779070CF05EC057FD5CC0828593853B
:101E0000481759070CF056C086898230B1F08330EC
:101E100029F1813041F484819581841B950BAB01BC
:101E2000BC01615071092130310509F108F443C04A
:101E30002230310509F463C0089584819581DC0165
:101E4000A61BB70BBD016150710986819781DC012A
:101E5000A41BB50BAD0141505109E5CF8681978197
:101E6000861B970BBA01AC0141505109DCCFCA0166
:101E700057FD0796A3E095958795AA95E1F7A4816C
:101E8000B5818A9F90018B9F300D9A9F300D112450
:101E9000620F731F078CF0A1E02DE60FF71F47704C
:101EA000552721E030E001C0220F4A95EAF78081F2
:101EB000822B80830895CA0157FD079633E09595DC
:101EC00087953A95E1F7A481B5818A9F90018B9F10
:101ED000300D9A9F300D1124620F731F078CF0A1F3
:101EE000E02DE60FF71F4770552781E090E001C015
:101EF000880F4A95EAF7809590818923DACFCA0145
:101F000057FD079623E0959587952A95E1F7A481DB
:101F1000B5818A9F90018B9F300D9A9F300D1124BF
:101F2000620F731F078CF0A1E02DE60FF71F4770BB
:101F3000552721E030E001C0220F4A95EAF7808161
:101F40008227B7CF08958EBD00000DB407FEFDCFE8
:101F50008EB50895CF92DF92EF92FF920F931F9369
:101F6000CF93DF93EC016B01142F8D8D9E8D009725
:101F700009F454C029A131E03093840220938302F4
:101F800010928B0210928A02DC01ED91FC9101907B
:101F9000F081E02D60E009957601CC24C394D12C2A
:101FA00001E011508D8D9E8D1F3F71F1B0E2CB1677
:101FB000D104C0F00E94650C8D8D9E8D29A10093E7
:101FC00084022093830210928B0210928A02DC0119
:101FD000ED91FC910190F081E02D60E00995CC2419
:101FE000C394D12C8D8D9E8DF7016491DC01ED9110
:101FF000FC910190F081E02D0995BFEFCB1ADB0A2F
:10200000EFEFEE1AFE0ACDCFDF91CF911F910F9126
:10201000FF90EF90DF90CF900C94650CEDA5FEA59E
:1020200090818BA98095892380837B01115070F169
:10203000F70184912B8D3C8D232B31F00E94A30F4F
:10204000FFEFEF1AFF0AF2CF28E030E040E8E9A501
:10205000FAA599A9582F5423A9F05081952B908364
:10206000EBA5FCA590815AA9952B9083EBA5FCA527
:1020700050819AA9909595239083469521503109D6
:1020800031F7DECF508190959523E9CFDF91CF9145
:102090001F910F91FF90EF90DF90CF9008951F93C5
:1020A000CF93DF93EC018D8D9E8D009721F1162F3C
:1020B00029A131E0309384022093830210928B0295
:1020C00010928A02DC01ED91FC910190F081E02DEB
:1020D00060E009958D8D9E8DDC01ED91FC91019064
:1020E000F081E02D612F09958D8D9E8DDF91CF912F
:1020F0001F910C94650CADA5BEA59C918BA98095F4
:1021000089238C938B8D9C8D892B31F0862FDF91C9
:10211000CF911F910C94A30F28E030E080E8A9A58F
:10212000BAA599A9462F4823C1F04C91942B9C93B2
:10213000ABA5BCA59C914AA9942B9C93ABA5BCA52F
:102140004C919AA9909594239C938695215031099E
:1021500031F7DF91CF911F9108954C919095942381
:10216000E6CF8CBD9DBD08951F93CF93DF93EC0107
:10217000162F8D8D9E8D892BB1F12DA93EA94FA9CA
:1021800058AD60E074E284EF90E00E941826205180
:10219000310941095109569547953795279520935F
:1021A000B80066EA111167EACE010E944F108D8DCA
:1021B0009E8D892B41F129AD3AAD4BAD5CAD60E010
:1021C00074E284EF90E00E94182620513109410901
:1021D000510956954795379527952093B800DF917B
:1021E000CF911F9108958B8D9C8D892B21F08EAD01
:1021F0009FAD0E94B110EFA5F8A990818CA98095A0
:1022000089238083CECFEFA5F8A980819CA9892B53
:102210008083E5CFBF92CF92DF92EF92FF920F9330
:102220001F93CF93DF93EC018D8D9E8D892B09F445
:1022300084C02DA93EA94FA958AD60E074E284EF97
:1022400090E00E9418262051310941095109569504
:102250004795379527952093B80045E068E675E0E7
:10226000CE010E94AA0F6C816150CE010E944F10D6
:102270002E813F81C901079697FD079633E095951A
:1022800087953A95E1F72C813D81829F7001839F6C
:10229000F00C929FF00C11240F8D18A18D8D9E8D46
:1022A000E00EF11E009709F47DC029A131E03093C2
:1022B00084022093830210928B0210928A02DC0126
:1022C000ED91FC910190F081E02D60E40995CC2422
:1022D000C394D12CBB24B3948D8D9E8DE016F10652
:1022E000E1F1B0E2CB16D104C0F00E94650C8D8DF7
:1022F0009E8D29A1B09284022093830210928B02BA
:1023000010928A02DC01ED91FC910190F081E02DA8
:1023100060E40995CC24C394D12C8D8D9E8DF80159
:1023200061918F01DC01ED91FC910190F081E02D34
:102330000995BFEFCB1ADB0ACFCF8B8D9C8D892BF4
:1023400021F08EAD9FAD0E94B110EFA5F8A990814C
:102350008CA980958923808380CF0E94650C8D8D08
:102360009E8D892B09F453C029AD3AAD4BAD5CADC0
:1023700060E074E284EF90E00E9418262051310959
:102380004109510956954795379527952093B800EF
:10239000DF91CF911F910F91FF90EF90DF90CF9041
:1023A000BF900895EDA5FEA580819BA9892B808310
:1023B000E016F106A1F2F80181918F012B8D3C8D81
:1023C000232B19F00E94A30FF3CF28E030E040E860
:1023D000E9A5FAA599A9582F5423A9F05081952B66
:1023E0009083EBA5FCA590815AA9952B9083EBA532
:1023F000FCA550819AA990959523908346952150EC
:10240000310931F7D5CF508190959523E9CFEFA5CC
:10241000F8A980819CA9892B8083BACF0895FC01FB
:102420006370668B8481958126813781613039F0B4
:10243000633029F091878087338722870895318719
:1024400020879387828708952F923F924F925F92C1
:102450006F927F928F929F92AF92BF92CF92DF92B4
:10246000EF92FF920F931F93CF93DF93CDB7DEB719
:102470006A970FB6F894DEBF0FBECDBF9A8F898FD3
:102480007A8369834A01D22E18870F833701BC2CC7
:10249000DC0159962D913C915A972115310509F08F
:1024A00015C118968D919C911997681779070CF0B2
:1024B000D7C11A968D919C91481759070CF0D0C13D
:1024C0004C2C512CB6E0CB9E600D711D11247C87E5
:1024D0006B87161617060CF0C3C1EA2DF0E0FA87D9
:1024E000E98793E0EE0FFF1F9A95E1F7F88BEF87EE
:1024F000CF01840F951F181619060CF0B1C1A98DD4
:10250000BA8D58968C91811104C0BFEABD1508F4AC
:10251000D394A98DBA8DED91FC9111970284F38526
:10252000E02DCD010995B5E0DB9EC0011124E981C4
:10253000FA81FC83EB83312C212C9C0128593F4FDD
:10254000388F2F8B4A2D50E05E8B4D8BEF89F88DA5
:10255000E20DF31D44919E828D82D12CC12C6981A4
:102560007A81620D731D7A8B698B842F90E09C8B2E
:102570008B8BE98DFA8DA081B18140FF82C0F1E0A3
:10258000BF126FC0AF126DC01C96ED91FC912F81F0
:102590003885A4014C0D5D1D69897A89898D9A8DD4
:1025A0000995EB89FC89F595E7954E2F5FEFC51AE4
:1025B000D50A6D817E818D899E89680F791F7E8302
:1025C0006D8398E0C916D10481F6AFEF2A1A3A0A52
:1025D000EB81FC81E40DF51DFC83EB83F5E02F1608
:1025E000310409F0B3CF2F81388526153705B9F0AE
:1025F000A98DBA8DED91FC91B1E0BB1257C0AB1221
:1026000055C069817A816B5F7F4F0088F189E02D29
:10261000830128E030E0A401898D9A8D0995A98D68
:10262000BA8DED91FC9111970688F789E02DCD01C7
:102630006A960FB6F894DEBF0FBECDBFDF91CF9183
:102640001F910F91FF90EF90DF90CF90BF90AF90D0
:102650009F908F907F906F905F904F903F902F90C2
:1026600009941E96ED91FC91EF80F88409851A85F6
:1026700092014D815E816B817C81898D9A8D099556
:1026800090CF2F8138852615370509F48ACF31E0A0
:10269000B31207C0A31205C01C96ED91FC919301E3
:1026A00078CF1E96ED91FC917301E0CF6B857C8510
:1026B000641975090684F785E02D73010F85188963
:1026C0009201A401898D9A8D0995A9CFF9013496BB
:1026D0009491329745915491D91AB7E0DB9E400D01
:1026E000511D1124F901259134913C8B2B8BFA015A
:1026F00025903490FA013296749031963491398B4A
:10270000329664903196449041E04C1518F04A1589
:1027100008F07FC0662D062C000C770B7C836B8342
:10272000842D042C000C990B9E838D83A98DBA8D6A
:10273000ED91FC9111970284F385E02DCD0109956F
:10274000512CD12CC12CEA2DF0E0FA87E9872B2DF2
:1027500030E03C872B87A401440D511D47FC5A955E
:10276000588F4F8B69817A81660D711D67FC7A9550
:102770007E876D877989C71608F051CF2C2D30E000
:102780004D815E81420F531FA985BA854A9FC001C2
:102790004B9F900D5A9F900D1124FC01E80DF91DDF
:1027A000F88BEF87852D612C4F89588D420F531F71
:1027B0005E8B4D8B671408F050C044244394480E40
:1027C000877041F4C1010196EB89FC89E20DF31D8C
:1027D000D4901C01D7FE19C0A98DBA8DED91FC9142
:1027E000662D70E0B1E0BB1219C0AB1217C02D8589
:1027F0003E85620F731F0484F585E02D2F81388597
:102800004D895E89898D9A8D0995DD0C6394842D9F
:10281000D1CF1E821D821C821B8288CF4B815C819E
:10282000640F751FAB85BC856A9FC0016B9F900DBF
:102830007A9F900D112469817A81680F791F06842F
:10284000F785E02DEF80F88409851A859D014F8575
:102850005889898D9A8D0995D8CF570CC3948ACF02
:102860006A960FB6F894DEBF0FBECDBFDF91CF9151
:102870001F910F91FF90EF90DF90CF90BF90AF909E
:102880009F908F907F906F905F904F903F902F9090
:1028900008958F929F92AF92CF92EF92FF920F93F3
:1028A0001F93CF93DF93EC01262F898D9A8D00978C
:1028B00009F051C06A30D1F41D861C868D8948E02C
:1028C000849F900111248E859F85820F931F9F877F
:1028D0008E8781E090E0DF91CF911F910F91FF9063
:1028E000EF90CF90AF909F908F9008956D3089F3C7
:1028F000CC88AD888F898823C1F08C859D8536E092
:10290000C39E800D911D112448855985481759078C
:1029100064F44E855F851D861C8638E0A39EC00149
:102920001124840F951F9F878E87EA88FB8808896A
:1029300019894E855F856C857D85CE010E942412A4
:102940002C898C859D8546E0249F800D911D112446
:102950009D878C87BECF6A3069F41D861C86FC017A
:102960003896E4912D898E859F85E29F800D911D7B
:102970001124ADCF6D3009F4ACCFFC013496349105
:10298000631708F4A6CF3296E491E61708F4A1CFB6
:10299000FC01329685909490462F431B342F47E0DC
:1029A000349F800C911C1124F4013296349131969D
:1029B000E4913323A9F1EE2399F1CC88F401359603
:1029C000E491AD884F89442301F10E2E000CFF0BDA
:1029D000E30FF11DCE9EA001CF9E500D11246C85FA
:1029E0007D85460F571F68857985641775076CF4D8
:1029F0004E855F851D861C86FC013896E491AE9E4F
:102A0000400D511D11245F874E87EA88FB88088995
:102A100019894E855F856C857D85CE010E942412C3
:102A2000F4013496E4912C898C859D85E29F800D7C
:102A3000911D11248DCF6F927F928F929F92AF92B2
:102A4000BF92CF92DF92EF92FF920F931F93CF939B
:102A5000DF93EC016B015A0139014801E881F981EA
:102A60000284F385E02D0995E881F9810288F389D4
:102A7000E02D87019301A501B601CE010995A501BD
:102A8000480D591D41505109E881F9810288F389A7
:102A9000E02D9301B601CE010995E881F981008806
:102AA000F189E02D9401A501B601CE010995C60C6E
:102AB000D71CB60161507109E881F9810088F1895C
:102AC000E02D9401A501CE010995E881F9810688E0
:102AD000F789E02DCE01DF91CF911F910F91FF90EB
:102AE000EF90DF90CF90BF90AF909F908F907F90AE
:102AF0006F9009946F927F928F929F92AF92BF9244
:102B0000CF92DF92EF92FF920F931F93CF93DF93B9
:102B10005C01EB016A01490138018701DC01ED919B
:102B2000FC916217730719F5641675062CF0962D43
:102B3000872D3A01C92ED82E9601261937092F5F05
:102B40003F4F048CF58DE02DA301BE01C501099511
:102B5000DF91CF911F910F91FF90EF90DF90CF9079
:102B6000BF90AF909F908F907F906F900895461583
:102B7000570591F42617370724F0892D4B01C22FF2
:102B8000D82F9E01281939092F5F3F4F068CF78DEA
:102B9000E02DA601B401DACF0284F385E02D09957A
:102BA000D501ED91FC910488F589E02D8301940114
:102BB000A601BE01C5010995D501ED91FC910688DC
:102BC000F789E02DC501DF91CF911F910F91FF9003
:102BD000EF90DF90CF90BF90AF909F908F907F90BD
:102BE0006F900994EF92FF920F931F93DC011A9656
:102BF0000D911C911B9718962D913C911997ED9171
:102C0000FC9100A0F1A1E02D7B0150E040E070E0DC
:102C100060E009951F910F91FF90EF9008954F92FA
:102C20005F926F927F928F929F92AF92BF92CF925C
:102C3000DF92EF92FF920F931F93CF93DF936C017C
:102C40002B015A0139014801DC01ED91FC9102840C
:102C5000F385E02D0995E201640C751CD601ED9118
:102C6000FC91C615D7055CF40088F189E02D870139
:102C70009401A501BE01C60109952196EFCF0688F2
:102C8000F789E02DC601DF91CF911F910F91FF9041
:102C9000EF90DF90CF90BF90AF909F908F907F90FC
:102CA0006F905F904F9009948F929F92AF92BF92D6
:102CB000CF92DF92EF92FF920F931F93CF93DF9308
:102CC000EC015B014A016901E881F9810284F38525
:102CD000E02D099595012C0D3D1D21503109E8810C
:102CE000F9810488F589E02D78018401A401B501FA
:102CF000CE010995E881F9810688F789E02DCE019A
:102D0000DF91CF911F910F91FF90EF90DF90CF90C7
:102D1000BF90AF909F908F9009948F929F92AF92A7
:102D2000BF92CF92DF92EF92FF920F931F93CF93B8
:102D3000DF93EC015B014A0169017801E881F981C7
:102D40000284F385E02D0995C80CD91C8601015039
:102D50001109E881F9810488F589E02D9501A40124
:102D6000B501CE010995E881F9810688F789E02D42
:102D7000CE01DF91CF911F910F91FF90EF90DF90E7
:102D8000CF90BF90AF909F908F900994EF92FF9259
:102D90000F931F93DC01ED91FC9100A0F1A1E02DB8
:102DA00009951F910F91FF90EF9008950F931F9336
:102DB000DC01ED91FC91068CF78DE02D09951F91BA
:102DC0000F9108950F931F93DC01ED91FC91048CFA
:102DD000F58DE02D09951F910F9108952F923F9247
:102DE0004F925F926F927F928F929F92AF92BF921B
:102DF000CF92DF92EF92FF920F931F93CF93DF93C7
:102E0000CDB7DEB728970FB6F894DEBF0FBECDBFA3
:102E10006C013B015E834D8338872F83220F331F64
:102E20002F5F3F4F8F819885481B590B01E010E0C1
:102E3000B301C6010E94E21681E090E02C012F81CF
:102E40003885421A530AC9019195819591099C01CF
:102E5000220F331F3C832B832F80388481E090E046
:102E60009A838983F12CE12C57FC0DC08F819885C2
:102E7000019798878F832B813C812E5F3F4F3C8346
:102E80002B83420E531E3FEFE31AF30A89819A8186
:102E900002969A838983480E591E2F8138852E15F4
:102EA0003F050CF464C04901880C991C3FEF831A5C
:102EB000930A01E010E09401AD80BE808F81988577
:102EC000A81AB90AA501B3016E0D7F1DC6010E94A3
:102ED000E2169401A501B3016E197F09C6010E9493
:102EE000E2162F8138852215330511F1AA24A39407
:102EF000B12CAE18BF088D819E81A80EB91EB301FA
:102F0000620D731D01E010E089809A8092E0891AB9
:102F100091089401A501C6010E94E216B30162194D
:102F200073099401A501C6010E94E2162F8038841E
:102F30002F813885E216F3060CF496CF28960FB64B
:102F4000F894DEBF0FBECDBFDF91CF911F910F91DF
:102F5000FF90EF90DF90CF90BF90AF909F908F90B9
:102F60007F906F905F904F903F902F9008952F81AA
:102F700038852215330509F0B9CFE0CFDC01ED919A
:102F8000FC910084F185E02D09943F924F925F926D
:102F90006F927F928F929F92AF92BF92CF92DF9269
:102FA000EF92FF920F931F93CF93DF9300D000D047
:102FB000CDB7DEB75C013B016A014901280187E01A
:102FC000480E511C93E0559447949A95E1F7CA0135
:102FD0008E0D9F1D9A838983F12CE12C312C1C824C
:102FE0001B828B819C8187709927330C892B61F41C
:102FF000EB81FC8183E0F595E7958A95E1F7EE0D8D
:10300000FF1DE80DF91D349037FE0AC021E030E0C5
:10301000A6016B817C81660D771DC5010E94BE17DC
:103020008B819C8101969C838B8308171907C9F6B5
:103030009FEFC91AD90AE40CF51C89819A81C81638
:10304000D90669F60F900F900F900F90DF91CF91F6
:103050001F910F91FF90EF90DF90CF90BF90AF90B6
:103060009F908F907F906F905F904F903F900895CA
:103070002F923F924F925F926F927F928F929F9288
:10308000AF92BF92CF92DF92EF92FF920F931F9376
:10309000CF93DF9300D000D000D0CDB7DEB73C0196
:1030A0006A013E832D83FC82EB825801A41AB50A83
:1030B000B7FE03C0B194A194B1088D809E80861A9A
:1030C000970A97FE03C09194819491088A149B04F7
:1030D0005CF0902F812F0D811E819D838E839C2D0E
:1030E0008D2D6B01692F782F0C151D055CF09D81CE
:1030F0008E817E836D83692F782F902F812F86019B
:10310000C92ED82E1601201A310A2B012D813E819D
:10311000421A530A57FE03C0519441945108710159
:1031200037FE03C03FEFE31AF30AF594E7948D816D
:103130009E81861797075CF5A1E0B0E0BA83A9836A
:10314000C016D1064CF1D301ED91FC910484F585B4
:10315000E02D2B813C81A8016D817E818A149B0426
:103160001CF04D815E81B801C3010995E418F50892
:10317000F7FE0AC02D813E8189819A81280F391F6F
:103180003E832D83E20CF31C0F5F1F4FD9CF2FEF2F
:103190003FEF3A832983D4CF26960FB6F894DEBF4B
:1031A0000FBECDBFDF91CF911F910F91FF90EF9098
:1031B000DF90CF90BF90AF909F908F907F906F9057
:1031C0005F904F903F902F900895089590E080E099
:1031D00008950E947927FB0101900020E9F73197BB
:1031E000AF01461B570BDC01ED91FC910280F3818E
:1031F000E02D0994CF93DF930E942D09EC0165E740
:1032000071E08BEA92E00E94EB188C0F9D1FDF911A
:10321000CF9108958F929F92AF92BF92EF92FF92BB
:103220000F931F93CF93DF93CDB7DEB7A1970FB660
:10323000F894DEBF0FBECDBF7C01FA01CB0119A20D
:10324000223008F42AE08E010F5D1F4F822E912C50
:10325000B12CA12CBF01A50194010E941826F901EF
:10326000CA016A300CF5605DD8016E938D01232B85
:10327000242B252B79F790E080E0109721F0BD01F9
:10328000C7010E94EB18A1960FB6F894DEBF0FBEDF
:10329000CDBFDF91CF911F910F91FF90EF90BF9025
:1032A000AF909F908F900895695CDECFCF92DF92B0
:1032B000EF92FF920F931F93CF93DF936B01770FE2
:1032C000EE08FF08F7FE1FC0EC01E881F9810190CC
:1032D000F081E02D6DE209958C0144275527BA0154
:1032E0004C195D096E097F092AE0CE010E940A1976
:1032F000800F911FDF91CF911F910F91FF90EF9061
:10330000DF90CF9008952AE0B701A601DF91CF9119
:103310001F910F91FF90EF90DF90CF900C940A19BE
:103320006115710511F00C94EB1890E080E00895A0
:1033300085ED8093BC0080910B0290910C02A091CE
:103340000D02B0910E020796A11DB11D23E0B695A6
:10335000A795979587952A95D1F72091BC0024FDD4
:1033600003C010925402089540910B0250910C0238
:1033700060910D0270910E02452B462B472B69F38D
:103380000097A105B10541F025E32A95F1F700006A
:103390000197A109B109E1CF80910A020C94BF0BFA
:1033A000FC01868197819C01295F3F4F37FF02C056
:1033B000295F3F4F83E0359527958A95E1F7848112
:1033C0009581289FA001299F500D389F500D1124F1
:1033D00070E060E0878D90A10C947E271F920F9281
:1033E0000FB60F9211242F933F934F935F936F93D8
:1033F0007F938F939F93AF93BF93EF93FF938BEA4A
:1034000092E00E94BE08FF91EF91BF91AF919F9112
:103410008F917F916F915F914F913F912F910F907D
:103420000FBE0F901F9018951F920F920FB60F921C
:1034300011242F938F939F93EF93FF93E091BB02FF
:10344000F091BC028081E091C102F091C20282FD44
:103450001BC090818091C4028F5F8F732091C50241
:10346000821741F0E091C402F0E0E555FD4F958FE1
:103470008093C402FF91EF919F918F912F910F90B4
:103480000FBE0F901F9018958081F4CF1F920F925E
:103490000FB60F9211242F933F938F939F93AF9367
:1034A000BF9380917B0290917C02A0917D02B091AC
:1034B0007E0230917A0223E0230F2D3758F50196D2
:1034C000A11DB11D20937A0280937B0290937C0210
:1034D000A0937D02B0937E0280917F029091800242
:1034E000A0918102B09182020196A11DB11D80932D
:1034F0007F0290938002A0938102B0938202BF91D9
:10350000AF919F918F913F912F910F900FBE0F9090
:103510001F90189526E8230F0296A11DB11DD2CF4A
:103520001F920F920FB60F9211242F933F934F9338
:103530005F936F937F938F939F93AF93BF93EF931B
:10354000FF93E0910201F09103010995FF91EF9142
:10355000BF91AF919F918F917F916F915F914F91AB
:103560003F912F910F900FBE0F901F9018951F92B3
:103570000F920FB60F9211242F933F934F935F93A7
:103580006F937F938F939F93AF93BF93EF93FF932B
:10359000E0910001F09101010995FF91EF91BF9138
:1035A000AF919F918F917F916F915F914F913F91DB
:1035B0002F910F900FBE0F901F9018951F920F9292
:1035C0000FB60F9211242F933F934F935F936F93F6
:1035D0007F938F939F93AF93BF93EF93FF938091CC
:1035E000B900887F803609F44AC0F0F5883209F4C2
:1035F000A7C018F5803109F49BC0B8F4882309F4FA
:10360000F9C0883009F494C0FF91EF91BF91AF9158
:103610009F918F917F916F915F914F913F912F91EA
:103620000F900FBE0F901F901895883109F488C035
:10363000803251F78093530214C0803409F49DC046
:1036400040F48033B9F38833F9F68093530285EC64
:10365000B0C0803509F485C0883509F496C0883437
:1036600099F60E949819D0CF883909F48CC038F5A2
:10367000883729F050F4883611F0803729F683E036
:10368000809354021092520257C0883809F47BC0CC
:10369000803919F0803809F0B7CF8091520280321A
:1036A00008F071C0E091520281E08E0F80935202C7
:1036B0008091BB00F0E0EE5CFD4F80833DC0803B1D
:1036C00039F0E0F4803A09F479C0883A09F09CCFE7
:1036D00084E0809354021092310210923002E09103
:1036E0008802F091890209958091300281110FC002
:1036F00081E0809330021092100209C0803C09F4EE
:10370000A6CF883C09F4A3CF883B09F07DCFE09198
:10371000310281E08E0F80933102F0E0E05FFD4FD7
:1037200080818093BB00909131028091300229C04A
:10373000809179028093BB0085EC8093BC0064CFBC
:103740009091780280917702981758F5E09178026D
:1037500081E08E0F80937802F0E0E95AFD4F80817E
:10376000E9CFE091780281E08E0F8093780280911A
:10377000BB00F0E0E95AFD4F808390917802809180
:1037800077029817C8F285E8D8CFE091780281E0F7
:103790008E0F809378028091BB00F0E0E95AFD4FD4
:1037A00080838091560281115CCF81E08093550225
:1037B00084EA8093BC001092540226CF85EC80935B
:1037C000BC001092540280915202803230F4E09199
:1037D0005202F0E0EE5CFD4F10826091520270E008
:1037E000E0918602F091870282E392E009951092BF
:1037F00052020ACF1092530234CFEBEAF2E0138266
:10380000128288EE93E0A0E0B0E084839583A683E3
:10381000B78325E531E03183208325EC30E035871F
:10382000248724EC30E03787268720EC30E0318B8A
:10383000208B21EC30E0338B228B22EC30E0358B77
:10384000248B26EC30E0378B268B118E128E138E54
:10385000148EE8E4F3E01382128284839583A683B6
:10386000B78387E691E091838083E4E5F3E081E02C
:1038700081838FE782830895CF93DF93CDB7DEB73F
:10388000C054D1090FB6F894DEBF0FBECDBF7894F7
:1038900084B5826084BD84B5816084BD85B5826055
:1038A00085BD85B5816085BD80916E008160809306
:1038B0006E0010928100809181008260809381006F
:1038C0008091810081608093810000E810E0809108
:1038D00080008160809380008091B100846080933B
:1038E000B1008091B00081608093B00080917A0037
:1038F000846080937A0080917A00826080937A005D
:1039000080917A00816080937A0080917A0080684B
:1039100080937A001092C100E091BB02F091BC024A
:1039200082E08083E091B702F091B8021082E091CA
:10393000B902F091BA028FEC80831092C302E09139
:10394000BF02F091C00286E08083E091BD02F09159
:10395000BE02808180618083E091BD02F091BE0251
:10396000808188608083E091BD02F091BE028081F9
:1039700080688083E091BD02F091BE0280818F7DDE
:1039800080838EEE9FE00E94FA188AEE9FE00E94EC
:10399000FA1885EE9FE00E942D0968E771E08BEA36
:1039A00092E00E94901980EE9FE00E94FA188BED41
:1039B0009FE00E942D0965EA71E08BEA92E00E9487
:1039C000901986ED9FE00E94FA1882ED9FE00E9418
:1039D000FA1862E084E00E94100A62E082E00E942D
:1039E000100A8AEB99E09093010180930001809185
:1039F00069008C7F826080936900E89A62E087E0CA
:103A00000E94100A62E085E00E94100A62E088E0ED
:103A10000E94100A62E086E00E94100A62E089E0DB
:103A20000E94100A62E08EE00E94100A62E080E1CB
:103A30000E94100A62E08FE00E94100A8EE00E944D
:103A400091097C019093AA028093A90280E10E94CF
:103A500091099093A8028093A7028FE00E94910998
:103A60009093A6028093A5028DEB9FE00E942D0902
:103A7000B7018BEA92E00E9456196AEA71E08BEA7C
:103A800092E00E94EB1865E771E08BEA92E00E94F9
:103A9000EB1885EA9FE00E942D096091A7027091C2
:103AA000A8028BEA92E00E94561980EA9FE00E94E9
:103AB000FA1889E89FE00E942D096091A502709193
:103AC000A6028BEA92E00E94561984E89FE00E94C9
:103AD000FA188091A7029091A802009709F463C098
:103AE000019721F5109307010093060180E290E011
:103AF000909305018093040186E69FE00E942D09C2
:103B000060E870E08BEA92E00E94561984E69FE03C
:103B10000E942D0960910401709105018BEA92E0E9
:103B20000E9456198FE59FE00E94FA188091A50225
:103B30009091A602009709F459C0019721F485E1FC
:103B40009FE00E94FA1810928D0210928C0210923F
:103B50008B0210928A020E94A10B8EE398E0909350
:103B60008902809388028FE398E090938702809384
:103B700086021091550301E0809156031817C8F58D
:103B8000009384021093830210928B0210928A0297
:103B900088E493E00E94650C811103C0812F0E948C
:103BA00031081F5FE9CF109307010093060180E4FD
:103BB00090E0909305018093040181E49FE00E94CE
:103BC0002D0960E870E08BEA92E00E9456198FE3BD
:103BD0009FE00E942D0960910401709105018BEA1C
:103BE00092E00E9456198AE39FE09ECF81EF9EE00B
:103BF000A8CF8091A3029091A402009711F5109292
:103C0000A2021092A10283ED9EE00E94FA18809118
:103C1000A1029091A2028130910559F1039709F414
:103C2000F2C089E89AE00E94FA1800E010E001155D
:103C30001105E9F30E94AA088823C9F30E94000035
:103C4000F6CF8130910549F483E090E09093A20291
:103C50008093A10289EB9EE0D8CF85369105BCF216
:103C600081E090E09093A2028093A10280EA9EE01E
:103C7000CCCF86E89EE00E94FA181092BC0083E147
:103C80008C8382E18D8361E083E10E94100A61E010
:103C90008D810E94100A82E69EE00E94FA1888E850
:103CA0008B8389E39EE00E94FA186CE271E080E069
:103CB00090E00E94710A44E160E0CE0101960E940A
:103CC000490B44E161E0CE0101960E94490B44E1B9
:103CD00062E0CE0101960E94490B82E19EE00E94C3
:103CE000FA186CE271E080E090E00E94710A5AE0FC
:103CF000C52ED12C84E00E9491099093A00280935C
:103D00009F0282E00E94910985E00E9491098C0146
:103D100090939E0280939D0287E00E94910988E023
:103D20000E9491097C0190939C0280939B0286E003
:103D30000E94910990939A028093990289E00E94CF
:103D400091095C019093980280939702E114F10429
:103D500051F4109296021092950246E160E0CE0175
:103D600001960E94490BAB2831F444E162E0CE0198
:103D700001960E94490B45E10130110521F0011522
:103D8000110531F443E162E0CE0101960E94490B36
:103D900080919302909194020817190749F080913D
:103DA00091029091920201969093920280939102D7
:103DB0001093940200939302809195029091960241
:103DC000B6010E940426182F80938F0290939002D0
:103DD000462F672B21F446E1EF2809F040E160E02F
:103DE000CE0101960E94490B412F61E0CE01019660
:103DF0000E94490B8091910261E080FD60E08DE0BE
:103E00000E94E20977CF87EF9DE00E942D09409143
:103E10008E0250E070E060E020E18BEA92E00E94C8
:103E20000A1981EF9DE00E94FA1820910401309157
:103E300005018091060190910701332799271C8283
:103E40001B829E838D8338872F839A8789873C873F
:103E50002B871F8A1E861D86188A1F8641E04E8B7F
:103E60004D8B6FEF7FEF7C8B6B8B7A8B698B488FE1
:103E7000198E1B8E1A8E49E251E05A8349831D8E9A
:103E80001C8E48E453E05F8F4E8F4FEF4DA34EA33F
:103E90004FA348A744E049A740E85AE166E070E034
:103EA0004EAB5FAB68AF79AF40EA56E861E070E0D7
:103EB0004AAF5BAF6CAF7DAF40E54FAF21961FAE11
:103EC0002197D0908E02295F3F4F43E0359527958B
:103ED0004A95E1F7AC01249FC001259F900D349FC6
:103EE000900D11240E94542699A388A3892B29F4AC
:103EF00087ED9DE00E94FA18FFCFCE0101960E9447
:103F0000D0198F8198856D817E81AC0181970CF4E9
:103F100047C24054510957FF02C04F5F5F4F55954C
:103F200047956255710977FF02C06F5F7F4F7595A6
:103F3000679510E4E12EF12C02E510E029EC37E062
:103F4000CE0101960E94C51782E08BA38E8D9F8DB6
:103F5000892B09F43FC28D2DD11006C08F81988521
:103F6000809709F035C28CE38AA310928D021092DB
:103F70008C0210928B0210928A020E94A10B8EE397
:103F800098E090938902809388028FE398E0909361
:103F900087028093860289A587FD1BC061E00E948D
:103FA000100A61E089A50E94E20961E070E080E00A
:103FB00090E00E94710A60E089A50E94E2096AE02F
:103FC00070E080E090E00E94710A61E089A50E94A3
:103FD000E2098E8D9F8D892B09F4A5C22EA93FA9D8
:103FE00048AD59AD60E074E284EF90E00E9418267D
:103FF0002051310941095109569547953795279523
:104000002093B80044E063EB75E0CE0101960E9476
:10401000AA0F6F816150CE0101960E944F1044E0BB
:104020006FEA75E0CE0101960E94AA0F8BA160E1B4
:10403000813009F064E1CE0101960E944F1044E006
:104040006BEA75E0CE0101960E94AA0F8FE88EAF51
:104050008D819E818038910509F079C28F81988584
:104060008034910509F07FC28BA1813009F06DC2C7
:104070008FE98EAF12E16AEDCE0101960E944F10DA
:10408000612FCE0101960E944F1061E8CE0101968A
:104090000E944F106EADCE0101960E944F1069ED47
:1040A000CE0101960E944F108BA162E2813009F08F
:1040B00061EFCE0101960E944F1046E065EA75E07F
:1040C000CE0101960E94AA0F8E8D9F8D892B09F437
:1040D0004EC22AAD3BAD4CAD5DAD60E074E284EF05
:1040E00090E00E9418262051310941095109569546
:1040F0004795379527952093B80062E0CE01019649
:104100000E940F1281E090E09C8B8B8B9A8B898BA5
:1041100088EA9DE00E942D0940918E0250E070E0F7
:1041200060E020E18BEA92E00E940A1982EA9DE0B9
:104130000E94FA1862E084E00E94100ACE01019603
:104140000E94D0198091040190910501803291055F
:1041500009F414C28034910509F433C2CE010196EA
:104160000E940A1160ED77E080E090E00E94710A01
:10417000DD24D39400E3A02EB12C83E0C82E94E07C
:10418000692E712C28E0822E912C84E00E949109E6
:104190009093A00280939F0282E00E94910985E0A3
:1041A0000E94910990939E0280939D0287E00E9455
:1041B000910988E00E9491097C0190939C02809370
:1041C0009B0286E00E94910990939A028093990243
:1041D00089E00E9491098C01909398028093970244
:1041E000CE0101960E94D019EF2821F41092960278
:1041F00010929502012B91F4809104019091050198
:104200008032910509F409C28034910509F415C280
:104210006CEB71E0CE0101960E94901960919502BD
:104220007091960280910401909105018032910570
:1042300009F414C28034910509F425C2CE01019617
:104240000E945619809104019091050180329105D8
:1042500009F42FC28034910509F457C261E070E07F
:1042600080919D0290919E02892B11F070E060E098
:10427000CE0101960E94561982E08D8B8E8B809123
:104280009F029091A002892B91F48091040190915A
:1042900005018032910509F465C28034910509F465
:1042A0006FC26EEB71E0CE0101960E949019809171
:1042B0009F029091A002019791F480910401909146
:1042C00005018032910509F465C28034910509F435
:1042D00079C260EC71E0CE0101960E949019809144
:1042E0000401909105018032910509F470C2803477
:1042F000910509F47EC28091990290919A02892BCE
:1043000091F480910401909105018032910509F4A6
:1043100095C28034910509F49DC262EC71E0CE0132
:1043200001960E94901980919B0290919C02892B8A
:1043300091F480910401909105018032910509F476
:10434000A9C28034910509F4AEC266EC71E0CE01D9
:1043500001960E949019CE0101960E940A112091A7
:104360009D0230919E028091930290919402821757
:10437000930749F080919102909192020196909357
:104380009202809391023093940220939302809141
:10439000910261E080FD60E08DE00E94E209F5CECF
:1043A0004052510957FF02C04F5F5F4F55954795E7
:1043B0006357710977FF02C06F5F7F4F75956795EF
:1043C000F0E2EF2EF12C03E710E029EE35E0B8CD56
:1043D0008DE3CACD61E08FA10E94100A61E088A53B
:1043E0000E94100A8FA1082E000C990BFC01EB52C1
:1043F000FA4FE491F0E0EE0FFF1FE553FA4F2591DD
:1044000034913FA72EA7FC01E954FA4FE491ECAB9D
:1044100088A5082E000C990BFC01EB52FA4FE49191
:10442000F0E0EE0FFF1FE553FA4FA591B491B9AB41
:10443000A8ABFC01E954FA4FE491EDAB8C91E82B69
:10444000EC938C8D9D8D892B09F434C01FB7F894A3
:1044500080918502811127C0EFEDF5E08491E1ECB8
:10446000F5E09491E82FF0E0EE0FFF1FE556FA4FCC
:10447000A591B491EC91E92321F461E08AE00E94D6
:10448000E20961E08AE00E94100A8CB580618CBD6F
:104490008CB580648CBD61E08DE00E94100A61E003
:1044A0008BE00E94100A809185028F5F80938502C5
:1044B0001FBF71CD61E08DA10E94100A61E08EA145
:1044C0000E94100A8DA1082E000C990BFC01EB52E2
:1044D000FA4FE491F0E0EE0FFF1FE553FA4F2591FC
:1044E00034913BA72AA7FC01E954FA4FE491EAABC7
:1044F0008EA1082E000C990BFC01EB52FA4FE491AF
:10450000F0E0EE0FFF1FE553FA4FA591B491BDA760
:10451000ACA7FC01E954FA4FE491EBAB8C91E09528
:10452000E823EC9338CD8C8D9D8D892B31F021962D
:104530008EAD9FAD21970E94B110E8A9F9A9908195
:104540008DA98095892380835DCD8FEC92CD8036B7
:10455000910549F48F819885409729F48BA181308A
:1045600021F480E18EAF12E086CD8FEAFBCFE8A97F
:10457000F9A980819DA9892B8083BFCD70E2E72EA8
:10458000F12C00E810E022EA3AE050E040E070E070
:1045900060E0CE0101960E94C51720910401309180
:1045A000050128503109809106019091070197FD7E
:1045B00001969595879584979E878D87388B2F8751
:1045C000CDCD50E3E52EF12C00E810E022EA3AE0F0
:1045D00050E040E070E060E0CE0101960E94C51717
:1045E00081E08D8B8E8B20910401309105012C5040
:1045F0003109809106019091070197FD01969595EB
:10460000879584979E878D87388B2F876FEA71E017
:10461000CE0101960E949019A1CDDD8ADE8A80919B
:1046200006019091070197FD01969595879503974F
:104630009E878D87188A1F86EBCD82E08D8B8E8BAF
:10464000809106019091070197FD019695958795B8
:1046500006979E878D87B88AAF86DACDCD8ACE8AB7
:10466000809106019091070197FD01969595879598
:104670006A30710534F44E979E878D87788A6F86ED
:10468000DDCDC097F9CF84E08D8B8E8B80910601B4
:104690009091070197FD0196959587956A30710570
:1046A00034F44D979E878D87988A8F86C7CDC5979E
:1046B000F9CF609106017091070177FF02C06F5F2B
:1046C0007F4F7595679523E030E040E150E0CE01E3
:1046D00001960E94EE16809104019091050197FDCC
:1046E0000196959587950C972091060130910701C9
:1046F00037FF02C02F5F3F4F35952795245F3F4F0F
:104700003E872D87988B8F87A9CD60910601709188
:10471000070177FF02C06F5F7F4F7595679524E0B3
:1047200030E048E150E0CE0101960E94EE16209163
:10473000040130910501C901409797FD01969595B7
:1047400087959C01205131098091060190910701C4
:1047500097FD0196959587950A969E878D87388B4C
:104760002F877CCD809106019091070197FD0196DE
:104770009595879584969E878D87988A8F8691CD0B
:1047800080910601909107010C979E878D87B88ACA
:10479000AF8687CD809106019091070197FD019624
:1047A0009595879520919502309196022A30310592
:1047B00034F4C6979E878D87988A8F868ACD8854D1
:1047C0009109F8CF1E861D86B88AAF8682CD2091CA
:1047D000950230919602EE24E394F12C0FE110E063
:1047E0004FE150E070E060E0CE0101960E947A1542
:1047F00082CD609106017091070177FF02C06F5F63
:104800007F4F7595679580919502909196029C01D6
:1048100097FF02C02F5F3F4F35952795260F371F13
:1048200097FD019695958795681B790BEE24E39487
:10483000F12C0FE210E04FE250E0D6CFDD8ADE8AA5
:10484000809106019091070142979E878D87188A73
:104850001F8663CD82E08D8B8E8B609106017091F7
:104860000701072E000C880B990B0E940B2520E0F6
:1048700030E040E45FE30E94972520E030E040E92B
:1048800051E40E9466240E94D3247E876D87B88AF3
:10489000AF8643CDDD8ADE8A1E861D8688E190E0E4
:1048A000988B8F8752CD82E08D8B8E8B8091060105
:1048B0009091070197FD0396959587959595879516
:1048C00006979E878D87B88AAF863FCD5058BB2705
:1048D000AA270E947E240C945D250E944F2538F063
:1048E0000E94562520F039F49F3F19F426F40C94C9
:1048F0004C250EF4E095E7FB0C944625E92F0E9429
:104900006E2558F3BA17620773078407950720F0DE
:1049100079F4A6F50C9490250EF4E0950B2EBA2FA1
:10492000A02D0B01B90190010C01CA01A0011124B5
:10493000FF27591B99F0593F50F4503E68F11A1661
:10494000F040A22F232F342F4427585FF3CF4695F2
:1049500037952795A795F0405395C9F77EF41F1614
:10496000BA0B620B730B840BBAF09150A1F0FF0FDE
:10497000BB1F661F771F881FC2F70EC0BA0F621FCA
:10498000731F841F48F4879577956795B795F795BA
:104990009E3F08F0B0CF9395880F08F09927EE0F4F
:1049A0009795879508950E94DA246894B1110C9424
:1049B000912508950E94762588F09F5798F0B92F89
:1049C0009927B751B0F0E1F0660F771F881F991F44
:1049D0001AF0BA95C9F714C0B13091F00E94902531
:1049E000B1E008950C949025672F782F8827B85F41
:1049F00039F0B93FCCF3869577956795B395D9F79C
:104A00003EF490958095709561957F4F8F4F9F4FA5
:104A10000895E89409C097FB3EF4909580957095B1
:104A200061957F4F8F4F9F4F9923A9F0F92F96E9FA
:104A3000BB279395F695879577956795B795F1116F
:104A4000F8CFFAF4BB0F11F460FF1BC06F5F7F4F0C
:104A50008F4F9F4F16C0882311F096E911C077231E
:104A600021F09EE8872F762F05C0662371F096E827
:104A7000862F70E060E02AF09A95660F771F881FF6
:104A8000DAF7880F9695879597F9089597F99F67B4
:104A900080E870E060E008959FEF80EC08950024C6
:104AA0000A941616170618060906089500240A9493
:104AB00012161306140605060895092E0394000C19
:104AC00011F4882352F0BB0F40F4BF2B11F460FFA8
:104AD00004C06F5F7F4F8F4F9F4F089557FD9058D1
:104AE000440F551F59F05F3F71F04795880F97FBB2
:104AF000991F61F09F3F79F087950895121613066C
:104B00001406551FF2CF4695F1DF08C0161617069A
:104B10001806991FF1CF86957105610508940895CF
:104B2000E894BB2766277727CB0197F908950E9461
:104B3000AA250C945D250E944F2538F00E94562529
:104B400020F0952311F00C9446250C944C2511244B
:104B50000C9491250E946E2570F3959FC1F3950FDB
:104B600050E0551F629FF001729FBB27F00DB11DF1
:104B7000639FAA27F00DB11DAA1F649F6627B00D81
:104B8000A11D661F829F2227B00DA11D621F739F6A
:104B9000B00DA11D621F839FA00D611D221F749F78
:104BA0003327A00D611D231F849F600D211D822FBF
:104BB000762F6A2F11249F5750409AF0F1F08823E6
:104BC0004AF0EE0FFF1FBB1F661F771F881F915013
:104BD0005040A9F79E3F510580F00C9446250C9457
:104BE00091255F3FE4F3983ED4F3869577956795DA
:104BF000B795F795E7959F5FC1F7FE2B880F911D3D
:104C00009695879597F9089597FB072E16F40094CB
:104C100007D077FD09D00E943A2607FC05D03EF464
:104C2000909581959F4F0895709561957F4F089558
:104C3000A1E21A2EAA1BBB1BFD010DC0AA1FBB1FA0
:104C4000EE1FFF1FA217B307E407F50720F0A21B12
:104C5000B30BE40BF50B661F771F881F991F1A947F
:104C600069F760957095809590959B01AC01BD01A9
:104C7000CF010895AA1BBB1B51E107C0AA1FBB1F90
:104C8000A617B70710F0A61BB70B881F991F5A95D8
:104C9000A9F780959095BC01CD010895EE0FFF1FF7
:104CA0000590F491E02D09940F931F93CF93DF9318
:104CB0008230910510F482E090E0E0915903F09188
:104CC0005A0330E020E0B0E0A0E0309799F42115DD
:104CD000310509F44AC0281B390B24303105D8F5B9
:104CE0008A819B816115710589F1FB019383828320
:104CF000FE0111C04081518102811381481759077B
:104D0000E0F04817590799F4109761F012960C9348
:104D1000129713961C933296CF01DF91CF911F917A
:104D20000F9108950093590310935A03F4CF21155E
:104D3000310551F04217530738F0A901DB019A0100
:104D4000BD01DF01F801C1CFEF01F9CF90935A0304
:104D500080935903CDCFFE01E20FF31F819391930E
:104D60002250310939832883D7CF209157033091BE
:104D70005803232B41F420910A0130910B01309309
:104D80005803209357032091080130910901211500
:104D9000310541F42DB73EB740910C0150910D0102
:104DA000241B350BE0915703F0915803E217F307EA
:104DB000A0F42E1B3F0B2817390778F0AC014E5F8B
:104DC0005F4F2417350748F04E0F5F1F509358036D
:104DD00040935703819391939FCFF0E0E0E09CCF05
:104DE000CF93DF930097E9F0FC0132971382128290
:104DF000A0915903B0915A03ED0130E020E01097E3
:104E0000A1F420813181820F931F209157033091AB
:104E100058032817390709F061C0F0935803E0934D
:104E20005703DF91CF910895EA01CE17DF07E8F528
:104E30004A815B819E0141155105B1F7E901FB8370
:104E4000EA8349915991C40FD51FEC17FD0761F40E
:104E5000808191810296840F951FE901998388834F
:104E6000828193819B838A83F0E0E0E012968D91AA
:104E70009C9113970097B9F52D913C911197CD0115
:104E80000296820F931F20915703309158032817E1
:104E9000390739F6309751F510925A031092590399
:104EA000B0935803A0935703BCCFD383C2834081F0
:104EB0005181840F951FC817D90761F44E5F5F4F6A
:104EC00088819981480F591F518340838A819B8132
:104ED000938382832115310509F0B0CFF0935A03F3
:104EE000E09359039ECFFD01DC01C0CF13821282F3
:104EF000D7CF81E090E0F8940C948527DC0101C0C5
:104F00006D9341505040E0F70895F894FFCFA30A05
:104F1000A30A2000800000005B0380003F065B4F77
:104F2000666D7D077F6F777C395E797100635C0108
:104F30004008780000000049144008E618E518F31E
:104F40000E3008BE17C616E216D616381830080FEF
:104F500012B410630EAC0E0F16F2157A151B150065
:104F6000000000E00840086D0848099E087C089091
:104F70000800000000360C090CE6183008020CEF9F
:104F80000BE00B0D0A004772656173657765617A06
:104F90006C652046312028476F74656B206F722046
:104FA000332E352920547261636B20446973706C11
:104FB00061790076312E300020232323004772656B
:104FC0006173657765617A6C65002A003E003C007C
:084FD00053454C005430000071
:107800000C94343C0C94513C0C94513C0C94513CE1
:107810000C94513C0C94513C0C94513C0C94513CB4
:107820000C94513C0C94513C0C94513C0C94513CA4
:107830000C94513C0C94513C0C94513C0C94513C94
:107840000C94513C0C94513C0C94513C0C94513C84
:107850000C94513C0C94513C0C94513C0C94513C74
:107860000C94513C0C94513C11241FBECFEFD8E036
:10787000DEBFCDBF11E0A0E0B1E0ECE9FFE702C060
:1078800005900D92A230B107D9F712E0A2E0B1E065
:1078900001C01D92AD30B107E1F70E942D3D0C945F
:1078A000CC3F0C94003C982F959595959595959582
:1078B000905D8F708A307CF0282F295A8091C0000B
:1078C00085FFFCCF9093C6008091C00085FFFCCF60
:1078D0002093C6000895282F205DF0CF982F809127
:1078E000C00085FFFCCF9093C6000895EF92FF92F1
:1078F0000F931F93EE24FF2487018091C00087FD22
:1079000017C00894E11CF11C011D111D81E4E8164B
:1079100082E4F8068FE0080780E0180770F3E09132
:107920000401F091050109958091C00087FFE9CF1E
:107930008091C6001F910F91FF90EF9008950E94D3
:10794000763C982F8091C00085FFFCCF9093C600B5
:1079500091362CF490330CF09053892F089597555D
:10796000892F08951F930E949F3C182F0E949F3CCF
:107970001295107F810F1F9108951F93182F882350
:1079800021F00E94763C1150E1F71F9108951F935A
:10799000182F0E94763C803249F0809103018F5F5E
:1079A000809303018530C1F01F9108958091C0003C
:1079B00085FFFCCF84E18093C6008091C00085FFE5
:1079C000FCCF1093C6008091C00085FFFCCF80E102
:1079D0008093C6001F910895E0910401F091050184
:1079E00009951F9108950E94763C803241F0809164
:1079F00003018F5F80930301853081F008958091AA
:107A0000C00085FFFCCF84E18093C6008091C00058
:107A100085FFFCCF80E18093C6000895E0910401CA
:107A2000F09105010995089540E951E08823A1F0FE
:107A30002D9A28EE33E0FA013197F1F721503040CA
:107A4000D1F72D9828EE33E0FA013197F1F7215064
:107A50003040D1F7815061F708953F924F925F9285
:107A60006F927F928F929F92AF92BF92CF92DF924E
:107A7000EF92FF920F931F93CF93DF93000080E16B
:107A80008093C4001092C50088E18093C10086E015
:107A90008093C2005098589A259A81E00E94143D24
:107AA00024E1F22E9EE1E92E85E9D82E0FE0C02ECA
:107AB00010E1B12EAA24A394B1E49B2EA6E58A2E50
:107AC000F2E57F2EE0E26E2E79E4572E63E5462E36
:107AD00050E5352E0E94763C8033B1F18133B9F107
:107AE000803409F46FC0813409F476C0823409F41B
:107AF00085C0853409F488C0803531F1823521F1A3
:107B0000813511F1853509F485C0863509F48DC0BC
:107B1000843609F496C0843709F403C1853709F423
:107B200072C1863709F466C0809103018F5F80932C
:107B30000301853079F6E0910401F0910501099582
:107B40000E94763C803351F60E94F33CC3CF0E94E2
:107B5000763C803249F78091C00085FFFCCFF092DF
:107B6000C6008091C00085FFFCCF9092C600809136
:107B7000C00085FFFCCF8092C6008091C00085FFC9
:107B8000FCCF7092C6008091C00085FFFCCF609250
:107B9000C6008091C00085FFFCCF5092C600809146
:107BA000C00085FFFCCF4092C6008091C00085FFD9
:107BB000FCCF3092C6008091C00085FFFCCFB09210
:107BC000C60088CF0E94763C863808F4BDCF0E945C
:107BD000763C0E94F33C7ECF0E94763C803809F4CC
:107BE0009CC0813809F40BC1823809F43CC1883942
:107BF00009F48FC080E00E94C73C6CCF84E10E94F2
:107C0000BD3C0E94F33C66CF85E00E94BD3C0E94D3
:107C1000F33C60CF0E94763C809306010E94763C44
:107C2000809307010E94F33C55CF0E94763C80333D
:107C300009F41DC183E00E94BD3C80E00E94C73C66
:107C400049CF0E94763C809309020E94763C809343
:107C5000080280910C028E7F80930C020E94763C79
:107C6000853409F415C18091080290910902892B8D
:107C700089F000E010E00E94763CF801E85FFE4FDA
:107C800080830F5F1F4F80910802909109020817AF
:107C9000190788F30E94763C803209F045CF809125
:107CA0000C0280FF01C16091060170910701660F0F
:107CB000771F7093070160930601A0910802B091AD
:107CC00009021097C9F0E8E0F1E09B01AD014E0F09
:107CD0005F1FF999FECF32BD21BD819180BDFA9A17
:107CE000F99A2F5F3F4FE417F50799F76A0F7B1F4B
:107CF00070930701609306018091C00085FFFCCF5F
:107D0000F092C6008091C00085FFFCCFB092C60003
:107D1000E1CE83E00E94C73CDDCE82E00E94C73CFA
:107D2000D9CE0E94763C809309020E94763C8093D3
:107D300008028091060190910701880F991F909386
:107D40000701809306010E94763C853409F4A6C0A1
:107D500080910C028E7F80930C020E94763C8032D0
:107D600009F0B8CE8091C00085FFFCCFF092C6002C
:107D7000609108027091090261157105B9F140E046
:107D800050E080910C02A82FA170B82FB27011C0E2
:107D9000BB2309F45CC0E0910601F0910701319624
:107DA000F0930701E09306014F5F5F4F46175707B7
:107DB000E8F4AA2369F3F999FECF209106013091E6
:107DC000070132BD21BDF89A90B58091C00085FFB2
:107DD000FCCF9093C6002F5F3F4F30930701209355
:107DE00006014F5F5F4F4617570718F38091C00099
:107DF00085FDE5CE8091C00085FFF8CFE0CE81E023
:107E00000E94C73C67CE0E94763C803209F08CCE3F
:107E10008091C00085FFFCCFF092C6008091C00029
:107E200085FFFCCFE092C6008091C00085FFFCCFAB
:107E3000D092C6008091C00085FFFCCFC092C600E2
:107E40008091C00085FFFCCFB092C60043CEE09188
:107E50000601F091070194918091C00085FFFCCF4D
:107E60009093C6009CCF80E10E94C73C33CE0E9415
:107E7000763C0E94763C182F0E94763C112309F430
:107E800083C0113009F484C08FE00E94C73C22CE29
:107E900080910C02816080930C02E5CE80910C02EF
:107EA000816080930C0259CF809107018823880F4D
:107EB000880B8A2180930B02809106019091070123
:107EC000880F991F90930701809306018091080203
:107ED00080FF09C080910802909109020196909359
:107EE000090280930802F894F999FECF1127E091D6
:107EF0000601F0910701C8E0D1E08091080290915D
:107F00000902103091F40091570001700130D9F34B
:107F100003E000935700E89500915700017001308D
:107F2000D9F301E100935700E89509901990009169
:107F3000570001700130D9F301E000935700E89534
:107F40001395103498F011270091570001700130FB
:107F5000D9F305E000935700E895009157000170B0
:107F60000130D9F301E100935700E895329602976A
:107F700009F0C7CF103011F00296E5CF112480919F
:107F8000C00085FFB9CEBCCE8EE10E94C73CA2CD19
:0E7F900085E90E94C73C9ECDF894FFCF80008B
:00000001FF
